{
  "contractName": "SecureVoting",
  "abi": [
    {
      "inputs": [],
      "stateMutability": "nonpayable",
      "type": "constructor"
    },
    {
      "anonymous": false,
      "inputs": [
        {
          "indexed": false,
          "internalType": "uint256",
          "name": "candidateID",
          "type": "uint256"
        }
      ],
      "name": "AddedCandidate",
      "type": "event"
    },
    {
      "inputs": [
        {
          "internalType": "string",
          "name": "name",
          "type": "string"
        },
        {
          "internalType": "string",
          "name": "party",
          "type": "string"
        }
      ],
      "name": "addCandidate",
      "outputs": [],
      "stateMutability": "nonpayable",
      "type": "function"
    },
    {
      "inputs": [
        {
          "internalType": "string",
          "name": "uid",
          "type": "string"
        },
        {
          "internalType": "uint256",
          "name": "candidateID",
          "type": "uint256"
        }
      ],
      "name": "vote",
      "outputs": [],
      "stateMutability": "nonpayable",
      "type": "function"
    },
    {
      "inputs": [
        {
          "internalType": "uint256",
          "name": "candidateID",
          "type": "uint256"
        }
      ],
      "name": "totalVotes",
      "outputs": [
        {
          "internalType": "uint256",
          "name": "",
          "type": "uint256"
        }
      ],
      "stateMutability": "view",
      "type": "function",
      "constant": true
    },
    {
      "inputs": [],
      "name": "getNumOfCandidates",
      "outputs": [
        {
          "internalType": "uint256",
          "name": "",
          "type": "uint256"
        }
      ],
      "stateMutability": "view",
      "type": "function",
      "constant": true
    },
    {
      "inputs": [],
      "name": "getNumOfVoters",
      "outputs": [
        {
          "internalType": "uint256",
          "name": "",
          "type": "uint256"
        }
      ],
      "stateMutability": "view",
      "type": "function",
      "constant": true
    },
    {
      "inputs": [
        {
          "internalType": "uint256",
          "name": "candidateID",
          "type": "uint256"
        }
      ],
      "name": "getCandidate",
      "outputs": [
        {
          "internalType": "uint256",
          "name": "",
          "type": "uint256"
        },
        {
          "internalType": "string",
          "name": "",
          "type": "string"
        },
        {
          "internalType": "string",
          "name": "",
          "type": "string"
        }
      ],
      "stateMutability": "view",
      "type": "function",
      "constant": true
    }
  ],
  "bytecode": "0x608060405234801561001057600080fd5b50336000806101000a81548173ffffffffffffffffffffffffffffffffffffffff021916908373ffffffffffffffffffffffffffffffffffffffff160217905550610957806100606000396000f3fe608060405234801561001057600080fd5b50600436106100625760003560e01c806319e6e1581461006757806326541b56146100a957806335b8e820146101fb57806365fc783c14610315578063a638580314610333578063e8685ba1146103f8575b600080fd5b6100936004803603602081101561007d57600080fd5b8101908080359060200190929190505050610416565b6040518082815260200191505060405180910390f35b6101f9600480360360408110156100bf57600080fd5b81019080803590602001906401000000008111156100dc57600080fd5b8201836020820111156100ee57600080fd5b8035906020019184600183028401116401000000008311171561011057600080fd5b91908080601f016020809104026020016040519081016040528093929190818152602001838380828437600081840152601f19601f8201169050808301925050505050505091929192908035906020019064010000000081111561017357600080fd5b82018360208201111561018557600080fd5b803590602001918460018302840111640100000000831117156101a757600080fd5b91908080601f016020809104026020016040519081016040528093929190818152602001838380828437600081840152601f19601f820116905080830192505050505050509192919290505050610468565b005b6102276004803603602081101561021157600080fd5b810190808035906020019092919050505061059f565b604051808481526020018060200180602001838103835285818151815260200191508051906020019080838360005b83811015610271578082015181840152602081019050610256565b50505050905090810190601f16801561029e5780820380516001836020036101000a031916815260200191505b50838103825284818151815260200191508051906020019080838360005b838110156102d75780820151818401526020810190506102bc565b50505050905090810190601f1680156103045780820380516001836020036101000a031916815260200191505b509550505050505060405180910390f35b61031d61079c565b6040518082815260200191505060405180910390f35b6103f66004803603604081101561034957600080fd5b810190808035906020019064010000000081111561036657600080fd5b82018360208201111561037857600080fd5b8035906020019184600183028401116401000000008311171561039a57600080fd5b91908080601f016020809104026020016040519081016040528093929190818152602001838380828437600081840152601f19601f820116905080830192505050505050509192919290803590602001909291905050506107a6565b005b610400610843565b6040518082815260200191505060405180910390f35b6000806000905060005b60025481101561045e5783600460008381526020019081526020016000206001015414156104515781806001019250505b8080600101915050610420565b5080915050919050565b60008054906101000a900473ffffffffffffffffffffffffffffffffffffffff1673ffffffffffffffffffffffffffffffffffffffff163373ffffffffffffffffffffffffffffffffffffffff16146104c057600080fd5b60006001600081548092919060010191905055905060405180606001604052808481526020018381526020016001151581525060036000838152602001908152602001600020600082015181600001908051906020019061052292919061084d565b50602082015181600101908051906020019061053f92919061084d565b5060408201518160020160006101000a81548160ff0219169083151502179055509050507fec542c373a064661ffef02d633752debf28f3e6c9f253680822d9ccf8b47aec6816040518082815260200191505060405180910390a1505050565b6000606080600115156003600086815260200190815260200160002060020160009054906101000a900460ff161515141561074457836003600086815260200190815260200160002060000160036000878152602001908152602001600020600101818054600181600116156101000203166002900480601f0160208091040260200160405190810160405280929190818152602001828054600181600116156101000203166002900480156106965780601f1061066b57610100808354040283529160200191610696565b820191906000526020600020905b81548152906001019060200180831161067957829003601f168201915b50505050509150808054600181600116156101000203166002900480601f0160208091040260200160405190810160405280929190818152602001828054600181600116156101000203166002900480156107325780601f1061070757610100808354040283529160200191610732565b820191906000526020600020905b81548152906001019060200180831161071557829003601f168201915b50505050509050925092509250610795565b6040517f08c379a00000000000000000000000000000000000000000000000000000000081526004018080602001828103825260298152602001806108f96029913960400191505060405180910390fd5b9193909250565b6000600254905090565b600115156003600083815260200190815260200160002060020160009054906101000a900460ff161515141561083f5760006002600081548092919060010191905055905060405180604001604052808481526020018381525060046000838152602001908152602001600020600082015181600001908051906020019061082f92919061084d565b5060208201518160010155905050505b5050565b6000600154905090565b828054600181600116156101000203166002900490600052602060002090601f01602090048101928261088357600085556108ca565b82601f1061089c57805160ff19168380011785556108ca565b828001600101855582156108ca579182015b828111156108c95782518255916020019190600101906108ae565b5b5090506108d791906108db565b5090565b5b808211156108f45760008160009055506001016108dc565b509056fe4e6f6e20657369737465206e657373756e2063616e64696461746f20636f6e207175656c6c2749442ea26469706673582212203992f19d447a4b53b2c7450d3e12968533be84999b589397dad64f556078e53364736f6c63430007060033",
  "immutableReferences": {},
  "source": "// SPDX-License-Identifier: MIT\npragma solidity ^0.7.0;\n\ncontract SecureVoting {\n    // Questo evento serve per loggare quando viene aggiunto un nuovo candidato\n    // Serve per il frontend per avere il riferimento alla votazione.\n    event AddedCandidate(uint256 candidateID);\n\n    // Indirizzo della persona che vota.\n    address owner;\n\n    // Costruttore.\n    constructor() {\n        owner = msg.sender;\n    }\n\n    // Modifier che si assicura che effettivamente ad eseguire il resto del codice\n    // sia la persona che sta votando.\n    modifier onlyOwner() {\n        require(msg.sender == owner);\n\n        // Questo carattere si usa in Solidity, solo in una funzione modifier, per far si\n        // che si possa eseguire il resto del codice.\n        _;\n    }\n\n    // Struct che descrive il Votante.\n    struct Voter {\n        string uid; // Possibile ottimizzazione con bytes32, magari indirizzo portafoglio ethereum?\n        uint256 candidateIDVote;\n    }\n\n    // Struct che descrive un Candidato.\n    struct Candidate {\n        string name;\n        string party;\n        // Ci assicuriamo che esista davvero.\n        bool doesExist;\n    }\n\n    // Variabili di stato che vengono salvate sulla Blockchain per il numero di voti totali e il numero di candidati totale.\n    uint256 numCandidates;\n    uint256 numVoters;\n\n    // Hash-table che ci permettono di tenere conto di candidati e voti.\n    mapping(uint256 => Candidate) candidates;\n    mapping(uint256 => Voter) voters;\n\n    function addCandidate(string memory name, string memory party)\n        public\n        onlyOwner\n    {\n        // Aggiorna il numero di Candidati totale.\n        uint256 candidateID = numCandidates++;\n        // Crea un nuovo candidato e lo aggiunge al mapping.\n        candidates[candidateID] = Candidate(name, party, true);\n        // Logghiamo che è stato aggiunto un candidato.\n        emit AddedCandidate(candidateID);\n    }\n\n    function vote(string memory uid, uint256 candidateID) public {\n        // Controlla se esiste il candidato per cui votiamo.\n        if (candidates[candidateID].doesExist == true) {\n            uint256 voterID = numVoters++; // Numero di voti totale viene aggiornato\n            voters[voterID] = Voter(uid, candidateID);\n        }\n    }\n\n    // Conta il numero di voti per un Candidato tramite un loop di tutte le votazioni effettuate.\n    function totalVotes(uint256 candidateID) public view returns (uint256) {\n        uint256 numOfVotes = 0;\n        for (uint256 i = 0; i < numVoters; i++) {\n            // Incrementa il numero di voti se l'ID corrisponde.\n            if (voters[i].candidateIDVote == candidateID) {\n                numOfVotes++;\n            }\n        }\n        return numOfVotes;\n    }\n\n    // Ritorna il numero di candidati totale.\n    function getNumOfCandidates() public view returns (uint256) {\n        return numCandidates;\n    }\n\n    // Ritorna il numero di voti totale.\n    function getNumOfVoters() public view returns (uint256) {\n        return numVoters;\n    }\n\n    // Ritorna tutte le informazioni su un Candidato.\n    function getCandidate(uint256 candidateID)\n        public\n        view\n        returns (\n            uint256,\n            string memory,\n            string memory\n        )\n    {\n        if (candidates[candidateID].doesExist == true) {\n            return (\n                candidateID,\n                candidates[candidateID].name,\n                candidates[candidateID].party\n            );\n        } else {\n            revert(\"Non esiste nessun candidato con quell'ID.\");\n        }\n    }\n}\n",
  "sourcePath": "/Users/giovannirapa/Documents/GitHub/SecureVoting/contracts/SecureVoting.sol",
  "compiler": {
    "name": "solc",
    "version": "0.7.6+commit.7338295f.Emscripten.clang"
  },
  "schemaVersion": "3.4.11",
  "updatedAt": "2022-12-07T19:48:28.498Z",
  "networkType": "ethereum",
  "devdoc": {
    "kind": "dev",
    "methods": {},
    "version": 1
  },
  "userdoc": {
    "kind": "user",
    "methods": {},
    "version": 1
  }
}