{
  "contractName": "SecureVoting",
  "abi": [
    {
      "inputs": [],
      "stateMutability": "nonpayable",
      "type": "constructor"
    },
    {
      "anonymous": false,
      "inputs": [
        {
          "indexed": false,
          "internalType": "uint256",
          "name": "candidateID",
          "type": "uint256"
        }
      ],
      "name": "AddedCandidate",
      "type": "event"
    },
    {
      "inputs": [
        {
          "internalType": "bytes32",
          "name": "name",
          "type": "bytes32"
        },
        {
          "internalType": "bytes32",
          "name": "party",
          "type": "bytes32"
        }
      ],
      "name": "addCandidate",
      "outputs": [],
      "stateMutability": "nonpayable",
      "type": "function"
    },
    {
      "inputs": [
        {
          "internalType": "bytes32",
          "name": "uid",
          "type": "bytes32"
        },
        {
          "internalType": "uint256",
          "name": "candidateID",
          "type": "uint256"
        }
      ],
      "name": "vote",
      "outputs": [],
      "stateMutability": "nonpayable",
      "type": "function"
    },
    {
      "inputs": [
        {
          "internalType": "uint256",
          "name": "candidateID",
          "type": "uint256"
        }
      ],
      "name": "totalVotes",
      "outputs": [
        {
          "internalType": "uint256",
          "name": "",
          "type": "uint256"
        }
      ],
      "stateMutability": "view",
      "type": "function",
      "constant": true
    },
    {
      "inputs": [],
      "name": "getNumOfCandidates",
      "outputs": [
        {
          "internalType": "uint256",
          "name": "",
          "type": "uint256"
        }
      ],
      "stateMutability": "view",
      "type": "function",
      "constant": true
    },
    {
      "inputs": [],
      "name": "getNumOfVoters",
      "outputs": [
        {
          "internalType": "uint256",
          "name": "",
          "type": "uint256"
        }
      ],
      "stateMutability": "view",
      "type": "function",
      "constant": true
    },
    {
      "inputs": [
        {
          "internalType": "uint256",
          "name": "candidateID",
          "type": "uint256"
        }
      ],
      "name": "getCandidate",
      "outputs": [
        {
          "internalType": "uint256",
          "name": "",
          "type": "uint256"
        },
        {
          "internalType": "bytes32",
          "name": "",
          "type": "bytes32"
        },
        {
          "internalType": "bytes32",
          "name": "",
          "type": "bytes32"
        }
      ],
      "stateMutability": "view",
      "type": "function",
      "constant": true
    }
  ],
  "bytecode": "0x608060405234801561001057600080fd5b50336000806101000a81548173ffffffffffffffffffffffffffffffffffffffff021916908373ffffffffffffffffffffffffffffffffffffffff16021790555061041d806100606000396000f3fe608060405234801561001057600080fd5b50600436106100625760003560e01c806319e6e1581461006757806335b8e820146100a957806365fc783c146100f95780639ef1204c14610117578063a1adbb251461014f578063e8685ba114610187575b600080fd5b6100936004803603602081101561007d57600080fd5b81019080803590602001909291905050506101a5565b6040518082815260200191505060405180910390f35b6100d5600480360360208110156100bf57600080fd5b81019080803590602001909291905050506101f7565b60405180848152602001838152602001828152602001935050505060405180910390f35b610101610238565b6040518082815260200191505060405180910390f35b61014d6004803603604081101561012d57600080fd5b810190808035906020019092919080359060200190929190505050610242565b005b6101856004803603604081101561016557600080fd5b8101908080359060200190929190803590602001909291905050506102cc565b005b61018f6103dd565b6040518082815260200191505060405180910390f35b6000806000905060005b6002548110156101ed5783600460008381526020019081526020016000206001015414156101e05781806001019250505b80806001019150506101af565b5080915050919050565b600080600083600360008681526020019081526020016000206000015460036000878152602001908152602001600020600101549250925092509193909250565b6000600254905090565b600115156003600083815260200190815260200160002060020160009054906101000a900460ff16151514156102c857600060026000815480929190600101919050559050604051806040016040528084815260200183815250600460008381526020019081526020016000206000820151816000015560208201518160010155905050505b5050565b60008054906101000a900473ffffffffffffffffffffffffffffffffffffffff1673ffffffffffffffffffffffffffffffffffffffff163373ffffffffffffffffffffffffffffffffffffffff161461032457600080fd5b60006001600081548092919060010191905055905060405180606001604052808481526020018381526020016001151581525060036000838152602001908152602001600020600082015181600001556020820151816001015560408201518160020160006101000a81548160ff0219169083151502179055509050507fec542c373a064661ffef02d633752debf28f3e6c9f253680822d9ccf8b47aec6816040518082815260200191505060405180910390a1505050565b600060015490509056fea264697066735822122000f8e2974b3fc5a09dc17979a87d123c07292d57ead772c3230f0818cd685d4664736f6c63430007060033",
  "immutableReferences": {},
  "source": "// SPDX-License-Identifier: MIT\npragma solidity ^0.7.0;\n\ncontract SecureVoting {\n    // Questo evento serve per loggare quando viene aggiunto un nuovo candidato\n    // Serve per il frontend per avere il riferimento alla votazione.\n    event AddedCandidate(uint256 candidateID);\n\n    // Indirizzo della persona che vota.\n    address owner;\n\n    // Costruttore.\n    constructor() {\n        owner = msg.sender;\n    }\n\n    // Modifier che si assicura che effettivamente ad eseguire il resto del codice\n    // sia la persona che sta votando.\n    modifier onlyOwner() {\n        require(msg.sender == owner);\n\n        // Questo carattere si usa in Solidity, solo in una funzione modifier, per far si\n        // che si possa eseguire il resto del codice.\n        _;\n    }\n\n    // Struct che descrive il Votante.\n    struct Voter {\n        bytes32 uid; // Inseriamo Bytes32 invece del tipo String per ottimizzazione della EVM.\n        uint256 candidateIDVote;\n    }\n\n    // Struct che descrive un Candidato.\n    struct Candidate {\n        bytes32 name;\n        bytes32 party;\n        // Ci assicuriamo che esista davvero.\n        bool doesExist;\n    }\n\n    // Variabili di stato che vengono salvate sulla Blockchain per il numero di voti totali e il numero di candidati totale.\n    uint256 numCandidates;\n    uint256 numVoters;\n\n    // Hash-table che ci permettono di tenere conto di candidati e voti.\n    mapping(uint256 => Candidate) candidates;\n    mapping(uint256 => Voter) voters;\n\n    function addCandidate(bytes32 name, bytes32 party) public onlyOwner {\n        // Aggiorna il numero di Candidati totale.\n        uint256 candidateID = numCandidates++;\n        // Crea un nuovo candidato e lo aggiunge al mapping.\n        candidates[candidateID] = Candidate(name, party, true);\n        // Logghiamo che è stato aggiunto un candidato.\n        emit AddedCandidate(candidateID);\n    }\n\n    function vote(bytes32 uid, uint256 candidateID) public {\n        // Controlla se esiste il candidato per cui votiamo.\n        if (candidates[candidateID].doesExist == true) {\n            uint256 voterID = numVoters++; // Numero di voti totale viene aggiornato\n            voters[voterID] = Voter(uid, candidateID);\n        }\n    }\n\n    // Conta il numero di voti per un Candidato tramite un loop di tutte le votazioni effettuate.\n    function totalVotes(uint256 candidateID) public view returns (uint256) {\n        uint256 numOfVotes = 0;\n        for (uint256 i = 0; i < numVoters; i++) {\n            // Incrementa il numero di voti se l'ID corrisponde.\n            if (voters[i].candidateIDVote == candidateID) {\n                numOfVotes++;\n            }\n        }\n        return numOfVotes;\n    }\n\n    // Ritorna il numero di candidati totale.\n    function getNumOfCandidates() public view returns (uint256) {\n        return numCandidates;\n    }\n\n    // Ritorna il numero di voti totale.\n    function getNumOfVoters() public view returns (uint256) {\n        return numVoters;\n    }\n\n    // Ritorna tutte le informazioni su un Candidato.\n    function getCandidate(uint256 candidateID)\n        public\n        view\n        returns (\n            uint256,\n            bytes32,\n            bytes32\n        )\n    {\n        return (\n            candidateID,\n            candidates[candidateID].name,\n            candidates[candidateID].party\n        );\n    }\n}\n",
  "sourcePath": "/Users/giovannirapa/Documents/GitHub/SecureVoting/contracts/SecureVoting.sol",
  "compiler": {
    "name": "solc",
    "version": "0.7.6+commit.7338295f.Emscripten.clang"
  },
  "schemaVersion": "3.4.11",
  "updatedAt": "2022-12-06T11:28:37.646Z",
  "networkType": "ethereum",
  "devdoc": {
    "kind": "dev",
    "methods": {},
    "version": 1
  },
  "userdoc": {
    "kind": "user",
    "methods": {},
    "version": 1
  }
}