{
  "contractName": "SecureVoting",
  "abi": [
    {
      "inputs": [],
      "stateMutability": "nonpayable",
      "type": "constructor"
    },
    {
      "anonymous": false,
      "inputs": [
        {
          "indexed": false,
          "internalType": "uint256",
          "name": "candidateID",
          "type": "uint256"
        }
      ],
      "name": "AddedCandidate",
      "type": "event"
    },
    {
      "inputs": [
        {
          "internalType": "string",
          "name": "name",
          "type": "string"
        },
        {
          "internalType": "string",
          "name": "party",
          "type": "string"
        }
      ],
      "name": "addCandidate",
      "outputs": [],
      "stateMutability": "nonpayable",
      "type": "function"
    },
    {
      "inputs": [
        {
          "internalType": "string",
          "name": "uid",
          "type": "string"
        },
        {
          "internalType": "uint256",
          "name": "candidateID",
          "type": "uint256"
        }
      ],
      "name": "vote",
      "outputs": [],
      "stateMutability": "nonpayable",
      "type": "function"
    },
    {
      "inputs": [
        {
          "internalType": "uint256",
          "name": "candidateID",
          "type": "uint256"
        }
      ],
      "name": "totalVotes",
      "outputs": [
        {
          "internalType": "uint256",
          "name": "",
          "type": "uint256"
        }
      ],
      "stateMutability": "view",
      "type": "function",
      "constant": true
    },
    {
      "inputs": [],
      "name": "getNumOfCandidates",
      "outputs": [
        {
          "internalType": "uint256",
          "name": "",
          "type": "uint256"
        }
      ],
      "stateMutability": "view",
      "type": "function",
      "constant": true
    },
    {
      "inputs": [],
      "name": "getNumOfVoters",
      "outputs": [
        {
          "internalType": "uint256",
          "name": "",
          "type": "uint256"
        }
      ],
      "stateMutability": "view",
      "type": "function",
      "constant": true
    },
    {
      "inputs": [],
      "name": "getCandidates",
      "outputs": [
        {
          "components": [
            {
              "internalType": "string",
              "name": "name",
              "type": "string"
            },
            {
              "internalType": "string",
              "name": "party",
              "type": "string"
            },
            {
              "internalType": "uint256",
              "name": "uid",
              "type": "uint256"
            },
            {
              "internalType": "uint256",
              "name": "votes",
              "type": "uint256"
            }
          ],
          "internalType": "struct SecureVoting.CandidateDao[]",
          "name": "",
          "type": "tuple[]"
        }
      ],
      "stateMutability": "view",
      "type": "function",
      "constant": true
    },
    {
      "inputs": [
        {
          "internalType": "uint256",
          "name": "candidateID",
          "type": "uint256"
        }
      ],
      "name": "getCandidate",
      "outputs": [
        {
          "internalType": "uint256",
          "name": "",
          "type": "uint256"
        },
        {
          "internalType": "string",
          "name": "",
          "type": "string"
        },
        {
          "internalType": "string",
          "name": "",
          "type": "string"
        }
      ],
      "stateMutability": "view",
      "type": "function",
      "constant": true
    },
    {
      "inputs": [
        {
          "internalType": "string",
          "name": "voterID",
          "type": "string"
        }
      ],
      "name": "hasAlreadyVoted",
      "outputs": [
        {
          "internalType": "bool",
          "name": "",
          "type": "bool"
        }
      ],
      "stateMutability": "view",
      "type": "function",
      "constant": true
    }
  ],
  "bytecode": "0x608060405234801561001057600080fd5b50336000806101000a81548173ffffffffffffffffffffffffffffffffffffffff021916908373ffffffffffffffffffffffffffffffffffffffff16021790555061132f806100606000396000f3fe608060405234801561001057600080fd5b50600436106100885760003560e01c806365fc783c1161005b57806365fc783c14610129578063a638580314610147578063a8ac93d214610163578063e8685ba11461019357610088565b806306a49fce1461008d57806319e6e158146100ab57806326541b56146100db57806335b8e820146100f7575b600080fd5b6100956101b1565b6040516100a29190610b13565b60405180910390f35b6100c560048036038101906100c09190610b75565b6103ec565b6040516100d29190610bb1565b60405180910390f35b6100f560048036038101906100f09190610d01565b610449565b005b610111600480360381019061010c9190610b75565b610578565b60405161012093929190610dc3565b60405180910390f35b61013161073e565b60405161013e9190610bb1565b60405180910390f35b610161600480360381019061015c9190610e08565b610748565b005b61017d60048036038101906101789190610e64565b6107e3565b60405161018a9190610ec8565b60405180910390f35b61019b6108d0565b6040516101a89190610bb1565b60405180910390f35b6060600060015467ffffffffffffffff8111156101d1576101d0610bd6565b5b60405190808252806020026020018201604052801561020a57816020015b6101f7610916565b8152602001906001900390816101ef5790505b50905060005b6001548110156103e45760006003600083815260200190815260200160002060405180606001604052908160008201805461024a90610f12565b80601f016020809104026020016040519081016040528092919081815260200182805461027690610f12565b80156102c35780601f10610298576101008083540402835291602001916102c3565b820191906000526020600020905b8154815290600101906020018083116102a657829003601f168201915b505050505081526020016001820180546102dc90610f12565b80601f016020809104026020016040519081016040528092919081815260200182805461030890610f12565b80156103555780601f1061032a57610100808354040283529160200191610355565b820191906000526020600020905b81548152906001019060200180831161033857829003601f168201915b505050505081526020016002820160009054906101000a900460ff16151515158152505090506000604051806080016040528083600001518152602001836020015181526020018481526020016103ab856103ec565b8152509050808484815181106103c4576103c3610f43565b5b6020026020010181905250505080806103dc90610fa1565b915050610210565b508091505090565b6000806000905060005b60025481101561043f578360046000838152602001908152602001600020600101540361042c57818061042890610fa1565b9250505b808061043790610fa1565b9150506103f6565b5080915050919050565b60008054906101000a900473ffffffffffffffffffffffffffffffffffffffff1673ffffffffffffffffffffffffffffffffffffffff163373ffffffffffffffffffffffffffffffffffffffff16146104a157600080fd5b6000600160008154809291906104b690610fa1565b9190505590506040518060600160405280848152602001838152602001600115158152506003600083815260200190815260200160002060008201518160000190816105029190611195565b5060208201518160010190816105189190611195565b5060408201518160020160006101000a81548160ff0219169083151502179055509050507fec542c373a064661ffef02d633752debf28f3e6c9f253680822d9ccf8b47aec68160405161056b9190610bb1565b60405180910390a1505050565b6000606080600115156003600086815260200190815260200160002060020160009054906101000a900460ff161515036106fc578360036000868152602001908152602001600020600001600360008781526020019081526020016000206001018180546105e590610f12565b80601f016020809104026020016040519081016040528092919081815260200182805461061190610f12565b801561065e5780601f106106335761010080835404028352916020019161065e565b820191906000526020600020905b81548152906001019060200180831161064157829003601f168201915b5050505050915080805461067190610f12565b80601f016020809104026020016040519081016040528092919081815260200182805461069d90610f12565b80156106ea5780601f106106bf576101008083540402835291602001916106ea565b820191906000526020600020905b8154815290600101906020018083116106cd57829003601f168201915b50505050509050925092509250610737565b6040517f08c379a000000000000000000000000000000000000000000000000000000000815260040161072e906112d9565b60405180910390fd5b9193909250565b6000600254905090565b600115156003600083815260200190815260200160002060020160009054906101000a900460ff161515036107df5760006002600081548092919061078c90610fa1565b9190505590506040518060400160405280848152602001838152506004600083815260200190815260200160002060008201518160000190816107cf9190611195565b5060208201518160010155905050505b5050565b600080600090505b6002548110156108c557600115156108a160046000848152602001908152602001600020600001805461081d90610f12565b80601f016020809104026020016040519081016040528092919081815260200182805461084990610f12565b80156108965780601f1061086b57610100808354040283529160200191610896565b820191906000526020600020905b81548152906001019060200180831161087957829003601f168201915b5050505050856108da565b1515036108b25760019150506108cb565b80806108bd90610fa1565b9150506107eb565b50600090505b919050565b6000600154905090565b60006108e683836108ee565b905092915050565b60008151835114801561090e575081805190602001208380519060200120145b905092915050565b6040518060800160405280606081526020016060815260200160008152602001600081525090565b600081519050919050565b600082825260208201905092915050565b6000819050602082019050919050565b600081519050919050565b600082825260208201905092915050565b60005b838110156109a4578082015181840152602081019050610989565b60008484015250505050565b6000601f19601f8301169050919050565b60006109cc8261096a565b6109d68185610975565b93506109e6818560208601610986565b6109ef816109b0565b840191505092915050565b6000819050919050565b610a0d816109fa565b82525050565b60006080830160008301518482036000860152610a3082826109c1565b91505060208301518482036020860152610a4a82826109c1565b9150506040830151610a5f6040860182610a04565b506060830151610a726060860182610a04565b508091505092915050565b6000610a898383610a13565b905092915050565b6000602082019050919050565b6000610aa98261093e565b610ab38185610949565b935083602082028501610ac58561095a565b8060005b85811015610b015784840389528151610ae28582610a7d565b9450610aed83610a91565b925060208a01995050600181019050610ac9565b50829750879550505050505092915050565b60006020820190508181036000830152610b2d8184610a9e565b905092915050565b6000604051905090565b600080fd5b600080fd5b610b52816109fa565b8114610b5d57600080fd5b50565b600081359050610b6f81610b49565b92915050565b600060208284031215610b8b57610b8a610b3f565b5b6000610b9984828501610b60565b91505092915050565b610bab816109fa565b82525050565b6000602082019050610bc66000830184610ba2565b92915050565b600080fd5b600080fd5b7f4e487b7100000000000000000000000000000000000000000000000000000000600052604160045260246000fd5b610c0e826109b0565b810181811067ffffffffffffffff82111715610c2d57610c2c610bd6565b5b80604052505050565b6000610c40610b35565b9050610c4c8282610c05565b919050565b600067ffffffffffffffff821115610c6c57610c6b610bd6565b5b610c75826109b0565b9050602081019050919050565b82818337600083830152505050565b6000610ca4610c9f84610c51565b610c36565b905082815260208101848484011115610cc057610cbf610bd1565b5b610ccb848285610c82565b509392505050565b600082601f830112610ce857610ce7610bcc565b5b8135610cf8848260208601610c91565b91505092915050565b60008060408385031215610d1857610d17610b3f565b5b600083013567ffffffffffffffff811115610d3657610d35610b44565b5b610d4285828601610cd3565b925050602083013567ffffffffffffffff811115610d6357610d62610b44565b5b610d6f85828601610cd3565b9150509250929050565b600082825260208201905092915050565b6000610d958261096a565b610d9f8185610d79565b9350610daf818560208601610986565b610db8816109b0565b840191505092915050565b6000606082019050610dd86000830186610ba2565b8181036020830152610dea8185610d8a565b90508181036040830152610dfe8184610d8a565b9050949350505050565b60008060408385031215610e1f57610e1e610b3f565b5b600083013567ffffffffffffffff811115610e3d57610e3c610b44565b5b610e4985828601610cd3565b9250506020610e5a85828601610b60565b9150509250929050565b600060208284031215610e7a57610e79610b3f565b5b600082013567ffffffffffffffff811115610e9857610e97610b44565b5b610ea484828501610cd3565b91505092915050565b60008115159050919050565b610ec281610ead565b82525050565b6000602082019050610edd6000830184610eb9565b92915050565b7f4e487b7100000000000000000000000000000000000000000000000000000000600052602260045260246000fd5b60006002820490506001821680610f2a57607f821691505b602082108103610f3d57610f3c610ee3565b5b50919050565b7f4e487b7100000000000000000000000000000000000000000000000000000000600052603260045260246000fd5b7f4e487b7100000000000000000000000000000000000000000000000000000000600052601160045260246000fd5b6000610fac826109fa565b91507fffffffffffffffffffffffffffffffffffffffffffffffffffffffffffffffff8203610fde57610fdd610f72565b5b600182019050919050565b60008190508160005260206000209050919050565b60006020601f8301049050919050565b600082821b905092915050565b60006008830261104b7fffffffffffffffffffffffffffffffffffffffffffffffffffffffffffffffff8261100e565b611055868361100e565b95508019841693508086168417925050509392505050565b6000819050919050565b600061109261108d611088846109fa565b61106d565b6109fa565b9050919050565b6000819050919050565b6110ac83611077565b6110c06110b882611099565b84845461101b565b825550505050565b600090565b6110d56110c8565b6110e08184846110a3565b505050565b5b81811015611104576110f96000826110cd565b6001810190506110e6565b5050565b601f8211156111495761111a81610fe9565b61112384610ffe565b81016020851015611132578190505b61114661113e85610ffe565b8301826110e5565b50505b505050565b600082821c905092915050565b600061116c6000198460080261114e565b1980831691505092915050565b6000611185838361115b565b9150826002028217905092915050565b61119e8261096a565b67ffffffffffffffff8111156111b7576111b6610bd6565b5b6111c18254610f12565b6111cc828285611108565b600060209050601f8311600181146111ff57600084156111ed578287015190505b6111f78582611179565b86555061125f565b601f19841661120d86610fe9565b60005b8281101561123557848901518255600182019150602085019450602081019050611210565b86831015611252578489015161124e601f89168261115b565b8355505b6001600288020188555050505b505050505050565b7f4e6f6e20657369737465206e657373756e2063616e64696461746f20636f6e2060008201527f7175656c6c2749442e0000000000000000000000000000000000000000000000602082015250565b60006112c3602983610d79565b91506112ce82611267565b604082019050919050565b600060208201905081810360008301526112f2816112b6565b905091905056fea2646970667358221220aee1ae7b17cc141d220b70e64bd8e21a935002e2d3963ee40803c569f583142564736f6c63430008110033",
  "immutableReferences": {},
  "source": "// SPDX-License-Identifier: MIT\npragma solidity >=0.8.0;\n\ncontract SecureVoting {\n    // Questo evento serve per loggare quando viene aggiunto un nuovo candidato\n    // Serve per il frontend per avere il riferimento alla votazione.\n    event AddedCandidate(uint256 candidateID);\n\n    // Indirizzo della persona che vota.\n    address owner;\n\n    // Costruttore.\n    constructor() {\n        owner = msg.sender;\n    }\n\n    // Modifier che si assicura che effettivamente ad eseguire il resto del codice\n    // sia la persona che sta votando.\n    modifier onlyOwner() {\n        require(msg.sender == owner);\n\n        // Questo carattere si usa in Solidity, solo in una funzione modifier, per far si\n        // che si possa eseguire il resto del codice.\n        _;\n    }\n\n    // Struct che descrive il Votante.\n    struct Voter {\n        string uid; // Possibile ottimizzazione con bytes32, magari indirizzo portafoglio ethereum?\n        uint256 candidateIDVote;\n    }\n\n    // Struct che descrive un Candidato.\n    struct Candidate {\n        string name;\n        string party;\n        // uint256 uid;\n        // Ci assicuriamo che esista davvero.\n        bool doesExist;\n    }\n\n    struct CandidateDao {\n\n        string name;\n        string party;\n        uint256 uid;\n        uint256 votes;\n\n    }\n\n    // Variabili di stato che vengono salvate sulla Blockchain per il numero di voti totali e il numero di candidati totale.\n    uint256 numCandidates;\n    uint256 numVoters;\n\n    // Hash-table che ci permettono di tenere conto di candidati e voti.\n    mapping(uint256 => Candidate) candidates;\n    mapping(uint256 => Voter) voters;\n\n    function addCandidate(string memory name, string memory party)\n        public\n        onlyOwner\n    {\n        // Aggiorna il numero di Candidati totale.\n        uint256 candidateID = numCandidates++;\n        // Crea un nuovo candidato e lo aggiunge al mapping.\n        candidates[candidateID] = Candidate(name, party, true);\n        // Logghiamo che  stato aggiunto un candidato.\n        emit AddedCandidate(candidateID);\n    }\n\n    function vote(string memory uid, uint256 candidateID) public {\n        // Controlla se esiste il candidato per cui votiamo.\n        if (candidates[candidateID].doesExist == true) {\n            uint256 voterID = numVoters++; // Numero di voti totale viene aggiornato\n            voters[voterID] = Voter(uid, candidateID);\n        }\n    }\n\n    // Conta il numero di voti per un Candidato tramite un loop di tutte le votazioni effettuate.\n    function totalVotes(uint256 candidateID) public view returns (uint256) {\n        uint256 numOfVotes = 0;\n        for (uint256 i = 0; i < numVoters; i++) {\n            // Incrementa il numero di voti se l'ID corrisponde.\n            if (voters[i].candidateIDVote == candidateID) {\n                numOfVotes++;\n            }\n        }\n        return numOfVotes;\n    }\n\n    // Ritorna il numero di candidati totale.\n    function getNumOfCandidates() public view returns (uint256) {\n        return numCandidates;\n    }\n\n    // Ritorna il numero di voti totale.\n    function getNumOfVoters() public view returns (uint256) {\n        return numVoters;\n    }\n\n    // Ritorna tutti i candidati\n    function getCandidates() public view returns (CandidateDao[] memory) {\n        CandidateDao[] memory toBeRet = new CandidateDao[](numCandidates);\n        for (uint256 i = 0; i < numCandidates; i++) {\n            Candidate memory tmp = candidates[i];\n            CandidateDao memory toAdd = CandidateDao(tmp.name, tmp.party, i, totalVotes(i));\n            toBeRet[i] = toAdd;\n        }\n        return toBeRet;\n    }\n\n    // Ritorna tutte le informazioni su un Candidato.\n    // da modificare\n    function getCandidate(uint256 candidateID)\n        public\n        view\n        returns (\n            uint256,\n            string memory,\n            string memory\n        )\n    {\n        if (candidates[candidateID].doesExist == true) {\n            return (\n                candidateID,\n                candidates[candidateID].name,\n                candidates[candidateID].party\n            );\n        } else {\n            revert(\"Non esiste nessun candidato con quell'ID.\");\n        }\n    }\n\n    function hasAlreadyVoted(string memory voterID)\n        public\n        view\n        returns (bool)\n    {\n        for(uint256 i = 0; i < numVoters; i++){\n            if(strcmp(voters[i].uid, voterID) == true){\n                return true;\n            }\n        }\n        return false;\n    }\n\n    function memcmp(bytes memory a, bytes memory b)\n        internal\n        pure\n        returns (bool)\n    {\n        return (a.length == b.length) && (keccak256(a) == keccak256(b));\n    }\n\n    function strcmp(string memory a, string memory b)\n        internal\n        pure\n        returns (bool)\n    {\n        return memcmp(bytes(a), bytes(b));\n    }\n}\n",
  "sourcePath": "/Users/antoniocacciapuoti/SecureVoting/contracts/SecureVoting.sol",
  "compiler": {
    "name": "solc",
    "version": "0.8.17+commit.8df45f5f.Emscripten.clang"
  },
  "schemaVersion": "3.4.11",
  "updatedAt": "2023-01-03T20:30:55.407Z",
  "networkType": "ethereum",
  "devdoc": {
    "kind": "dev",
    "methods": {},
    "version": 1
  },
  "userdoc": {
    "kind": "user",
    "methods": {},
    "version": 1
  }
}