{
  "contractName": "SecureVoting",
  "abi": [
    {
      "inputs": [],
      "stateMutability": "nonpayable",
      "type": "constructor"
    },
    {
      "anonymous": false,
      "inputs": [
        {
          "indexed": false,
          "internalType": "uint256",
          "name": "candidateID",
          "type": "uint256"
        }
      ],
      "name": "AddedCandidate",
      "type": "event"
    },
    {
      "inputs": [
        {
          "internalType": "string",
          "name": "name",
          "type": "string"
        },
        {
          "internalType": "string",
          "name": "party",
          "type": "string"
        }
      ],
      "name": "addCandidate",
      "outputs": [],
      "stateMutability": "nonpayable",
      "type": "function"
    },
    {
      "inputs": [
        {
          "internalType": "address",
          "name": "uid",
          "type": "address"
        },
        {
          "internalType": "uint256",
          "name": "candidateID",
          "type": "uint256"
        }
      ],
      "name": "vote",
      "outputs": [],
      "stateMutability": "nonpayable",
      "type": "function"
    },
    {
      "inputs": [
        {
          "internalType": "uint256",
          "name": "candidateID",
          "type": "uint256"
        }
      ],
      "name": "totalVotes",
      "outputs": [
        {
          "internalType": "uint256",
          "name": "",
          "type": "uint256"
        }
      ],
      "stateMutability": "view",
      "type": "function",
      "constant": true
    },
    {
      "inputs": [],
      "name": "getNumOfCandidates",
      "outputs": [
        {
          "internalType": "uint256",
          "name": "",
          "type": "uint256"
        }
      ],
      "stateMutability": "view",
      "type": "function",
      "constant": true
    },
    {
      "inputs": [],
      "name": "getCandidates",
      "outputs": [
        {
          "components": [
            {
              "internalType": "string",
              "name": "name",
              "type": "string"
            },
            {
              "internalType": "string",
              "name": "party",
              "type": "string"
            },
            {
              "internalType": "uint256",
              "name": "votes",
              "type": "uint256"
            },
            {
              "internalType": "uint256",
              "name": "uid",
              "type": "uint256"
            }
          ],
          "internalType": "struct SecureVoting.CandidateDao[]",
          "name": "",
          "type": "tuple[]"
        }
      ],
      "stateMutability": "view",
      "type": "function",
      "constant": true
    },
    {
      "inputs": [
        {
          "internalType": "uint256",
          "name": "candidateID",
          "type": "uint256"
        }
      ],
      "name": "getCandidate",
      "outputs": [
        {
          "internalType": "uint256",
          "name": "",
          "type": "uint256"
        },
        {
          "internalType": "string",
          "name": "",
          "type": "string"
        },
        {
          "internalType": "string",
          "name": "",
          "type": "string"
        }
      ],
      "stateMutability": "view",
      "type": "function",
      "constant": true
    },
    {
      "inputs": [
        {
          "internalType": "address",
          "name": "voterID",
          "type": "address"
        }
      ],
      "name": "hasAlreadyVoted",
      "outputs": [
        {
          "internalType": "bool",
          "name": "",
          "type": "bool"
        }
      ],
      "stateMutability": "view",
      "type": "function",
      "constant": true
    }
  ],
  "bytecode": "0x608060405234801561001057600080fd5b50336000806101000a81548173ffffffffffffffffffffffffffffffffffffffff021916908373ffffffffffffffffffffffffffffffffffffffff16021790555061122f806100606000396000f3fe608060405234801561001057600080fd5b506004361061007d5760003560e01c806335b8e8201161005b57806335b8e820146100ec5780635f74bbde1461011e5780638574d5b01461013a578063e8685ba11461016a5761007d565b806306a49fce1461008257806319e6e158146100a057806326541b56146100d0575b600080fd5b61008a610188565b6040516100979190610a8f565b60405180910390f35b6100ba60048036038101906100b59190610ae7565b61039d565b6040516100c79190610b23565b60405180910390f35b6100ea60048036038101906100e59190610ba3565b6103bd565b005b61010660048036038101906101019190610ae7565b610587565b60405161011593929190610c6e565b60405180910390f35b61013860048036038101906101339190610d11565b61074d565b005b610154600480360381019061014f9190610d51565b61082f565b6040516101619190610d99565b60405180910390f35b610172610888565b60405161017f9190610b23565b60405180910390f35b6060600060015467ffffffffffffffff8111156101a8576101a7610db4565b5b6040519080825280602002602001820160405280156101e157816020015b6101ce610892565b8152602001906001900390816101c65790505b50905060005b60015481101561039557604051806080016040528060026000848152602001908152602001600020600001805461021d90610e12565b80601f016020809104026020016040519081016040528092919081815260200182805461024990610e12565b80156102965780601f1061026b57610100808354040283529160200191610296565b820191906000526020600020905b81548152906001019060200180831161027957829003601f168201915b505050505081526020016002600084815260200190815260200160002060010180546102c190610e12565b80601f01602080910402602001604051908101604052809291908181526020018280546102ed90610e12565b801561033a5780601f1061030f5761010080835404028352916020019161033a565b820191906000526020600020905b81548152906001019060200180831161031d57829003601f168201915b50505050508152602001600260008481526020019081526020016000206002015481526020018281525082828151811061037757610376610e43565b5b6020026020010181905250808061038d90610ea1565b9150506101e7565b508091505090565b600060026000838152602001908152602001600020600201549050919050565b60008054906101000a900473ffffffffffffffffffffffffffffffffffffffff1673ffffffffffffffffffffffffffffffffffffffff163373ffffffffffffffffffffffffffffffffffffffff161461041557600080fd5b60006001600081548092919061042a90610ea1565b919050559050604051806080016040528086868080601f016020809104026020016040519081016040528093929190818152602001838380828437600081840152601f19601f82011690508083019250505050505050815260200184848080601f016020809104026020016040519081016040528093929190818152602001838380828437600081840152601f19601f82011690508083019250505050505050815260200160008152602001600115158152506002600083815260200190815260200160002060008201518160000190816105059190611095565b50602082015181600101908161051b9190611095565b506040820151816002015560608201518160030160006101000a81548160ff0219169083151502179055509050507fec542c373a064661ffef02d633752debf28f3e6c9f253680822d9ccf8b47aec6816040516105789190610b23565b60405180910390a15050505050565b6000606080600115156002600086815260200190815260200160002060030160009054906101000a900460ff1615150361070b578360026000868152602001908152602001600020600001600260008781526020019081526020016000206001018180546105f490610e12565b80601f016020809104026020016040519081016040528092919081815260200182805461062090610e12565b801561066d5780601f106106425761010080835404028352916020019161066d565b820191906000526020600020905b81548152906001019060200180831161065057829003601f168201915b5050505050915080805461068090610e12565b80601f01602080910402602001604051908101604052809291908181526020018280546106ac90610e12565b80156106f95780601f106106ce576101008083540402835291602001916106f9565b820191906000526020600020905b8154815290600101906020018083116106dc57829003601f168201915b50505050509050925092509250610746565b6040517f08c379a000000000000000000000000000000000000000000000000000000000815260040161073d906111d9565b60405180910390fd5b9193909250565b600115156002600083815260200190815260200160002060030160009054906101000a900460ff1615150361082b57600260008281526020019081526020016000206002016000815461079f90610ea1565b91905081905550604051806040016040528082815260200160011515815250600360008473ffffffffffffffffffffffffffffffffffffffff1673ffffffffffffffffffffffffffffffffffffffff1681526020019081526020016000206000820151816000015560208201518160010160006101000a81548160ff0219169083151502179055509050505b5050565b6000600360008373ffffffffffffffffffffffffffffffffffffffff1673ffffffffffffffffffffffffffffffffffffffff16815260200190815260200160002060010160009054906101000a900460ff169050919050565b6000600154905090565b6040518060800160405280606081526020016060815260200160008152602001600081525090565b600081519050919050565b600082825260208201905092915050565b6000819050602082019050919050565b600081519050919050565b600082825260208201905092915050565b60005b83811015610920578082015181840152602081019050610905565b60008484015250505050565b6000601f19601f8301169050919050565b6000610948826108e6565b61095281856108f1565b9350610962818560208601610902565b61096b8161092c565b840191505092915050565b6000819050919050565b61098981610976565b82525050565b600060808301600083015184820360008601526109ac828261093d565b915050602083015184820360208601526109c6828261093d565b91505060408301516109db6040860182610980565b5060608301516109ee6060860182610980565b508091505092915050565b6000610a05838361098f565b905092915050565b6000602082019050919050565b6000610a25826108ba565b610a2f81856108c5565b935083602082028501610a41856108d6565b8060005b85811015610a7d5784840389528151610a5e85826109f9565b9450610a6983610a0d565b925060208a01995050600181019050610a45565b50829750879550505050505092915050565b60006020820190508181036000830152610aa98184610a1a565b905092915050565b600080fd5b600080fd5b610ac481610976565b8114610acf57600080fd5b50565b600081359050610ae181610abb565b92915050565b600060208284031215610afd57610afc610ab1565b5b6000610b0b84828501610ad2565b91505092915050565b610b1d81610976565b82525050565b6000602082019050610b386000830184610b14565b92915050565b600080fd5b600080fd5b600080fd5b60008083601f840112610b6357610b62610b3e565b5b8235905067ffffffffffffffff811115610b8057610b7f610b43565b5b602083019150836001820283011115610b9c57610b9b610b48565b5b9250929050565b60008060008060408587031215610bbd57610bbc610ab1565b5b600085013567ffffffffffffffff811115610bdb57610bda610ab6565b5b610be787828801610b4d565b9450945050602085013567ffffffffffffffff811115610c0a57610c09610ab6565b5b610c1687828801610b4d565b925092505092959194509250565b600082825260208201905092915050565b6000610c40826108e6565b610c4a8185610c24565b9350610c5a818560208601610902565b610c638161092c565b840191505092915050565b6000606082019050610c836000830186610b14565b8181036020830152610c958185610c35565b90508181036040830152610ca98184610c35565b9050949350505050565b600073ffffffffffffffffffffffffffffffffffffffff82169050919050565b6000610cde82610cb3565b9050919050565b610cee81610cd3565b8114610cf957600080fd5b50565b600081359050610d0b81610ce5565b92915050565b60008060408385031215610d2857610d27610ab1565b5b6000610d3685828601610cfc565b9250506020610d4785828601610ad2565b9150509250929050565b600060208284031215610d6757610d66610ab1565b5b6000610d7584828501610cfc565b91505092915050565b60008115159050919050565b610d9381610d7e565b82525050565b6000602082019050610dae6000830184610d8a565b92915050565b7f4e487b7100000000000000000000000000000000000000000000000000000000600052604160045260246000fd5b7f4e487b7100000000000000000000000000000000000000000000000000000000600052602260045260246000fd5b60006002820490506001821680610e2a57607f821691505b602082108103610e3d57610e3c610de3565b5b50919050565b7f4e487b7100000000000000000000000000000000000000000000000000000000600052603260045260246000fd5b7f4e487b7100000000000000000000000000000000000000000000000000000000600052601160045260246000fd5b6000610eac82610976565b91507fffffffffffffffffffffffffffffffffffffffffffffffffffffffffffffffff8203610ede57610edd610e72565b5b600182019050919050565b60008190508160005260206000209050919050565b60006020601f8301049050919050565b600082821b905092915050565b600060088302610f4b7fffffffffffffffffffffffffffffffffffffffffffffffffffffffffffffffff82610f0e565b610f558683610f0e565b95508019841693508086168417925050509392505050565b6000819050919050565b6000610f92610f8d610f8884610976565b610f6d565b610976565b9050919050565b6000819050919050565b610fac83610f77565b610fc0610fb882610f99565b848454610f1b565b825550505050565b600090565b610fd5610fc8565b610fe0818484610fa3565b505050565b5b8181101561100457610ff9600082610fcd565b600181019050610fe6565b5050565b601f8211156110495761101a81610ee9565b61102384610efe565b81016020851015611032578190505b61104661103e85610efe565b830182610fe5565b50505b505050565b600082821c905092915050565b600061106c6000198460080261104e565b1980831691505092915050565b6000611085838361105b565b9150826002028217905092915050565b61109e826108e6565b67ffffffffffffffff8111156110b7576110b6610db4565b5b6110c18254610e12565b6110cc828285611008565b600060209050601f8311600181146110ff57600084156110ed578287015190505b6110f78582611079565b86555061115f565b601f19841661110d86610ee9565b60005b8281101561113557848901518255600182019150602085019450602081019050611110565b86831015611152578489015161114e601f89168261105b565b8355505b6001600288020188555050505b505050505050565b7f4e6f6e20657369737465206e657373756e2063616e64696461746f20636f6e2060008201527f7175656c6c2749442e0000000000000000000000000000000000000000000000602082015250565b60006111c3602983610c24565b91506111ce82611167565b604082019050919050565b600060208201905081810360008301526111f2816111b6565b905091905056fea264697066735822122016a1224edc7ad6c00964c5ceb73d8c701012d4c72a10c8b60ba20041a62c19a664736f6c63430008110033",
  "immutableReferences": {},
  "source": "// SPDX-License-Identifier: MIT\npragma solidity >=0.8.0;\n\ncontract SecureVoting {\n    // Questo evento serve per loggare quando viene aggiunto un nuovo candidato\n    // Serve per il frontend per avere il riferimento alla votazione.\n    event AddedCandidate(uint256 candidateID);\n\n    // Indirizzo della persona che vota.\n    address owner;\n\n    // Costruttore.\n    constructor() {\n        owner = msg.sender;\n    }\n\n    // Modifier che si assicura che effettivamente ad eseguire il resto del codice\n    // sia la persona che sta votando.\n    modifier onlyOwner() {\n        require(msg.sender == owner);\n\n        // Questo carattere si usa in Solidity, solo in una funzione modifier, per far si\n        // che si possa eseguire il resto del codice.\n        _;\n    }\n\n    // Struct che descrive il Votante.\n    struct Voter {\n        uint256 candidateIDVote;\n        bool hasVoted;\n    }\n\n    // Struct che descrive un Candidato.\n    struct Candidate {\n        string name;\n        string party;\n        uint256 votes;\n        // Ci assicuriamo che esista davvero.\n        bool doesExist;\n    }\n\n    struct CandidateDao {\n\n        string name;\n        string party;\n        uint256 votes;\n        uint256 uid;\n\n    }\n\n    // Variabili di stato che vengono salvate sulla Blockchain per il numero di voti totali e il numero di candidati totale.\n    uint256 numCandidates;\n    // uint256 numVoters;\n\n    // Hash-table che ci permettono di tenere conto di candidati e voti.\n    mapping(uint256 => Candidate) candidates;\n    mapping(address => Voter) voters;\n\n    function addCandidate(string calldata name, string calldata party)\n        public\n        onlyOwner\n    {\n        // Aggiorna il numero di Candidati totale.\n        uint256 candidateID = numCandidates++;\n        // Crea un nuovo candidato e lo aggiunge al mapping.\n        candidates[candidateID] = Candidate(name, party, 0, true);\n        // Logghiamo che  stato aggiunto un candidato.\n        emit AddedCandidate(candidateID);\n    }\n\n    function vote(address uid, uint256 candidateID) public {\n        // Controlla se esiste il candidato per cui votiamo.\n        if (candidates[candidateID].doesExist == true) {\n            // uint256 voterID = numVoters++; // Numero di voti totale viene aggiornato\n            ++candidates[candidateID].votes;\n            voters[uid] = Voter(candidateID, true);\n        }\n    }\n\n    // Conta il numero di voti per un Candidato tramite un loop di tutte le votazioni effettuate.\n    function totalVotes(uint256 candidateID) public view returns (uint256) {\n        return candidates[candidateID].votes;\n    }\n\n    // Ritorna il numero di candidati totale.\n    function getNumOfCandidates() public view returns (uint256) {\n        return numCandidates;\n    }\n\n    // Ritorna il numero di voti totale.\n    // function getNumOfVoters() public view returns (uint256) {\n    //     return numVoters;\n    // }\n\n    // Ritorna tutti i candidati\n    function getCandidates() public view returns (CandidateDao[] memory) {\n        CandidateDao[] memory toBeRet = new CandidateDao[](numCandidates);\n        for (uint256 i = 0; i < numCandidates; i++) {\n            toBeRet[i] = CandidateDao(candidates[i].name, candidates[i].party, candidates[i].votes, i);\n        }\n        return toBeRet;\n    }\n\n    // Ritorna tutte le informazioni su un Candidato.\n    // da modificare\n    function getCandidate(uint256 candidateID)\n        public\n        view\n        returns (\n            uint256,\n            string memory,\n            string memory\n        )\n    {\n        if (candidates[candidateID].doesExist == true) {\n            return (\n                candidateID,\n                candidates[candidateID].name,\n                candidates[candidateID].party\n            );\n        } else {\n            revert(\"Non esiste nessun candidato con quell'ID.\");\n        }\n    }\n\n    function hasAlreadyVoted(address voterID)\n        public\n        view\n        returns (bool)\n    {\n        return voters[voterID].hasVoted;\n    }\n\n    // function memcmp(bytes memory a, bytes memory b)\n    //     internal\n    //     pure\n    //     returns (bool)\n    // {\n    //     return (a.length == b.length) && (keccak256(a) == keccak256(b));\n    // }\n\n    // function strcmp(string memory a, string memory b)\n    //     internal\n    //     pure\n    //     returns (bool)\n    // {\n    //     return memcmp(bytes(a), bytes(b));\n    // }\n}\n",
  "sourcePath": "/Users/antoniocacciapuoti/SecureVoting/contracts/SecureVoting.sol",
  "compiler": {
    "name": "solc",
    "version": "0.8.17+commit.8df45f5f.Emscripten.clang"
  },
  "schemaVersion": "3.4.11",
  "updatedAt": "2023-01-04T17:51:25.564Z",
  "networkType": "ethereum",
  "devdoc": {
    "kind": "dev",
    "methods": {},
    "version": 1
  },
  "userdoc": {
    "kind": "user",
    "methods": {},
    "version": 1
  }
}