{
  "contractName": "SecureVoting",
  "abi": [
    {
      "inputs": [],
      "stateMutability": "nonpayable",
      "type": "constructor"
    },
    {
      "anonymous": false,
      "inputs": [
        {
          "indexed": false,
          "internalType": "uint256",
          "name": "candidateID",
          "type": "uint256"
        }
      ],
      "name": "AddedCandidate",
      "type": "event"
    },
    {
      "inputs": [
        {
          "internalType": "string",
          "name": "name",
          "type": "string"
        },
        {
          "internalType": "string",
          "name": "party",
          "type": "string"
        }
      ],
      "name": "addCandidate",
      "outputs": [],
      "stateMutability": "nonpayable",
      "type": "function"
    },
    {
      "inputs": [
        {
          "internalType": "address",
          "name": "uid",
          "type": "address"
        },
        {
          "internalType": "uint256",
          "name": "candidateID",
          "type": "uint256"
        }
      ],
      "name": "vote",
      "outputs": [],
      "stateMutability": "nonpayable",
      "type": "function"
    },
    {
      "inputs": [
        {
          "internalType": "uint256",
          "name": "candidateID",
          "type": "uint256"
        }
      ],
      "name": "totalVotes",
      "outputs": [
        {
          "internalType": "uint256",
          "name": "",
          "type": "uint256"
        }
      ],
      "stateMutability": "view",
      "type": "function",
      "constant": true
    },
    {
      "inputs": [],
      "name": "getNumOfCandidates",
      "outputs": [
        {
          "internalType": "uint256",
          "name": "",
          "type": "uint256"
        }
      ],
      "stateMutability": "view",
      "type": "function",
      "constant": true
    },
    {
      "inputs": [],
      "name": "getNumOfVoters",
      "outputs": [
        {
          "internalType": "uint256",
          "name": "",
          "type": "uint256"
        }
      ],
      "stateMutability": "view",
      "type": "function",
      "constant": true
    },
    {
      "inputs": [],
      "name": "getCandidates",
      "outputs": [
        {
          "components": [
            {
              "internalType": "string",
              "name": "name",
              "type": "string"
            },
            {
              "internalType": "string",
              "name": "party",
              "type": "string"
            },
            {
              "internalType": "uint256",
              "name": "votes",
              "type": "uint256"
            },
            {
              "internalType": "uint256",
              "name": "uid",
              "type": "uint256"
            }
          ],
          "internalType": "struct SecureVoting.CandidateDao[]",
          "name": "",
          "type": "tuple[]"
        }
      ],
      "stateMutability": "view",
      "type": "function",
      "constant": true
    },
    {
      "inputs": [
        {
          "internalType": "uint256",
          "name": "candidateID",
          "type": "uint256"
        }
      ],
      "name": "getCandidate",
      "outputs": [
        {
          "internalType": "uint256",
          "name": "",
          "type": "uint256"
        },
        {
          "internalType": "string",
          "name": "",
          "type": "string"
        },
        {
          "internalType": "string",
          "name": "",
          "type": "string"
        }
      ],
      "stateMutability": "view",
      "type": "function",
      "constant": true
    },
    {
      "inputs": [
        {
          "internalType": "address",
          "name": "voterID",
          "type": "address"
        }
      ],
      "name": "hasAlreadyVoted",
      "outputs": [
        {
          "internalType": "bool",
          "name": "",
          "type": "bool"
        }
      ],
      "stateMutability": "view",
      "type": "function",
      "constant": true
    },
    {
      "inputs": [],
      "name": "isOwner",
      "outputs": [
        {
          "internalType": "bool",
          "name": "",
          "type": "bool"
        }
      ],
      "stateMutability": "view",
      "type": "function",
      "constant": true
    }
  ],
  "bytecode": "0x608060405234801561001057600080fd5b50336000806101000a81548173ffffffffffffffffffffffffffffffffffffffff021916908373ffffffffffffffffffffffffffffffffffffffff1602179055506112fa806100606000396000f3fe608060405234801561001057600080fd5b50600436106100935760003560e01c80635f74bbde116100665780635f74bbde1461013457806365fc783c146101505780638574d5b01461016e5780638f32d59b1461019e578063e8685ba1146101bc57610093565b806306a49fce1461009857806319e6e158146100b657806326541b56146100e657806335b8e82014610102575b600080fd5b6100a06101da565b6040516100ad9190610b5a565b60405180910390f35b6100d060048036038101906100cb9190610bb2565b6103ef565b6040516100dd9190610bee565b60405180910390f35b61010060048036038101906100fb9190610c6e565b61040f565b005b61011c60048036038101906101179190610bb2565b6105d9565b60405161012b93929190610d39565b60405180910390f35b61014e60048036038101906101499190610ddc565b61079f565b005b610158610899565b6040516101659190610bee565b60405180910390f35b61018860048036038101906101839190610e1c565b6108a3565b6040516101959190610e64565b60405180910390f35b6101a66108fc565b6040516101b39190610e64565b60405180910390f35b6101c4610953565b6040516101d19190610bee565b60405180910390f35b6060600060015467ffffffffffffffff8111156101fa576101f9610e7f565b5b60405190808252806020026020018201604052801561023357816020015b61022061095d565b8152602001906001900390816102185790505b50905060005b6001548110156103e757604051806080016040528060036000848152602001908152602001600020600001805461026f90610edd565b80601f016020809104026020016040519081016040528092919081815260200182805461029b90610edd565b80156102e85780601f106102bd576101008083540402835291602001916102e8565b820191906000526020600020905b8154815290600101906020018083116102cb57829003601f168201915b5050505050815260200160036000848152602001908152602001600020600101805461031390610edd565b80601f016020809104026020016040519081016040528092919081815260200182805461033f90610edd565b801561038c5780601f106103615761010080835404028352916020019161038c565b820191906000526020600020905b81548152906001019060200180831161036f57829003601f168201915b5050505050815260200160036000848152602001908152602001600020600201548152602001828152508282815181106103c9576103c8610f0e565b5b602002602001018190525080806103df90610f6c565b915050610239565b508091505090565b600060036000838152602001908152602001600020600201549050919050565b60008054906101000a900473ffffffffffffffffffffffffffffffffffffffff1673ffffffffffffffffffffffffffffffffffffffff163373ffffffffffffffffffffffffffffffffffffffff161461046757600080fd5b60006001600081548092919061047c90610f6c565b919050559050604051806080016040528086868080601f016020809104026020016040519081016040528093929190818152602001838380828437600081840152601f19601f82011690508083019250505050505050815260200184848080601f016020809104026020016040519081016040528093929190818152602001838380828437600081840152601f19601f82011690508083019250505050505050815260200160008152602001600115158152506003600083815260200190815260200160002060008201518160000190816105579190611160565b50602082015181600101908161056d9190611160565b506040820151816002015560608201518160030160006101000a81548160ff0219169083151502179055509050507fec542c373a064661ffef02d633752debf28f3e6c9f253680822d9ccf8b47aec6816040516105ca9190610bee565b60405180910390a15050505050565b6000606080600115156003600086815260200190815260200160002060030160009054906101000a900460ff1615150361075d5783600360008681526020019081526020016000206000016003600087815260200190815260200160002060010181805461064690610edd565b80601f016020809104026020016040519081016040528092919081815260200182805461067290610edd565b80156106bf5780601f10610694576101008083540402835291602001916106bf565b820191906000526020600020905b8154815290600101906020018083116106a257829003601f168201915b505050505091508080546106d290610edd565b80601f01602080910402602001604051908101604052809291908181526020018280546106fe90610edd565b801561074b5780601f106107205761010080835404028352916020019161074b565b820191906000526020600020905b81548152906001019060200180831161072e57829003601f168201915b50505050509050925092509250610798565b6040517f08c379a000000000000000000000000000000000000000000000000000000000815260040161078f906112a4565b60405180910390fd5b9193909250565b600115156003600083815260200190815260200160002060030160009054906101000a900460ff1615150361089557600260008154809291906107e190610f6c565b9190505550600360008281526020019081526020016000206002016000815461080990610f6c565b91905081905550604051806040016040528082815260200160011515815250600460008473ffffffffffffffffffffffffffffffffffffffff1673ffffffffffffffffffffffffffffffffffffffff1681526020019081526020016000206000820151816000015560208201518160010160006101000a81548160ff0219169083151502179055509050505b5050565b6000600254905090565b6000600460008373ffffffffffffffffffffffffffffffffffffffff1673ffffffffffffffffffffffffffffffffffffffff16815260200190815260200160002060010160009054906101000a900460ff169050919050565b60008060009054906101000a900473ffffffffffffffffffffffffffffffffffffffff1673ffffffffffffffffffffffffffffffffffffffff163373ffffffffffffffffffffffffffffffffffffffff1614905090565b6000600154905090565b6040518060800160405280606081526020016060815260200160008152602001600081525090565b600081519050919050565b600082825260208201905092915050565b6000819050602082019050919050565b600081519050919050565b600082825260208201905092915050565b60005b838110156109eb5780820151818401526020810190506109d0565b60008484015250505050565b6000601f19601f8301169050919050565b6000610a13826109b1565b610a1d81856109bc565b9350610a2d8185602086016109cd565b610a36816109f7565b840191505092915050565b6000819050919050565b610a5481610a41565b82525050565b60006080830160008301518482036000860152610a778282610a08565b91505060208301518482036020860152610a918282610a08565b9150506040830151610aa66040860182610a4b565b506060830151610ab96060860182610a4b565b508091505092915050565b6000610ad08383610a5a565b905092915050565b6000602082019050919050565b6000610af082610985565b610afa8185610990565b935083602082028501610b0c856109a1565b8060005b85811015610b485784840389528151610b298582610ac4565b9450610b3483610ad8565b925060208a01995050600181019050610b10565b50829750879550505050505092915050565b60006020820190508181036000830152610b748184610ae5565b905092915050565b600080fd5b600080fd5b610b8f81610a41565b8114610b9a57600080fd5b50565b600081359050610bac81610b86565b92915050565b600060208284031215610bc857610bc7610b7c565b5b6000610bd684828501610b9d565b91505092915050565b610be881610a41565b82525050565b6000602082019050610c036000830184610bdf565b92915050565b600080fd5b600080fd5b600080fd5b60008083601f840112610c2e57610c2d610c09565b5b8235905067ffffffffffffffff811115610c4b57610c4a610c0e565b5b602083019150836001820283011115610c6757610c66610c13565b5b9250929050565b60008060008060408587031215610c8857610c87610b7c565b5b600085013567ffffffffffffffff811115610ca657610ca5610b81565b5b610cb287828801610c18565b9450945050602085013567ffffffffffffffff811115610cd557610cd4610b81565b5b610ce187828801610c18565b925092505092959194509250565b600082825260208201905092915050565b6000610d0b826109b1565b610d158185610cef565b9350610d258185602086016109cd565b610d2e816109f7565b840191505092915050565b6000606082019050610d4e6000830186610bdf565b8181036020830152610d608185610d00565b90508181036040830152610d748184610d00565b9050949350505050565b600073ffffffffffffffffffffffffffffffffffffffff82169050919050565b6000610da982610d7e565b9050919050565b610db981610d9e565b8114610dc457600080fd5b50565b600081359050610dd681610db0565b92915050565b60008060408385031215610df357610df2610b7c565b5b6000610e0185828601610dc7565b9250506020610e1285828601610b9d565b9150509250929050565b600060208284031215610e3257610e31610b7c565b5b6000610e4084828501610dc7565b91505092915050565b60008115159050919050565b610e5e81610e49565b82525050565b6000602082019050610e796000830184610e55565b92915050565b7f4e487b7100000000000000000000000000000000000000000000000000000000600052604160045260246000fd5b7f4e487b7100000000000000000000000000000000000000000000000000000000600052602260045260246000fd5b60006002820490506001821680610ef557607f821691505b602082108103610f0857610f07610eae565b5b50919050565b7f4e487b7100000000000000000000000000000000000000000000000000000000600052603260045260246000fd5b7f4e487b7100000000000000000000000000000000000000000000000000000000600052601160045260246000fd5b6000610f7782610a41565b91507fffffffffffffffffffffffffffffffffffffffffffffffffffffffffffffffff8203610fa957610fa8610f3d565b5b600182019050919050565b60008190508160005260206000209050919050565b60006020601f8301049050919050565b600082821b905092915050565b6000600883026110167fffffffffffffffffffffffffffffffffffffffffffffffffffffffffffffffff82610fd9565b6110208683610fd9565b95508019841693508086168417925050509392505050565b6000819050919050565b600061105d61105861105384610a41565b611038565b610a41565b9050919050565b6000819050919050565b61107783611042565b61108b61108382611064565b848454610fe6565b825550505050565b600090565b6110a0611093565b6110ab81848461106e565b505050565b5b818110156110cf576110c4600082611098565b6001810190506110b1565b5050565b601f821115611114576110e581610fb4565b6110ee84610fc9565b810160208510156110fd578190505b61111161110985610fc9565b8301826110b0565b50505b505050565b600082821c905092915050565b600061113760001984600802611119565b1980831691505092915050565b60006111508383611126565b9150826002028217905092915050565b611169826109b1565b67ffffffffffffffff81111561118257611181610e7f565b5b61118c8254610edd565b6111978282856110d3565b600060209050601f8311600181146111ca57600084156111b8578287015190505b6111c28582611144565b86555061122a565b601f1984166111d886610fb4565b60005b82811015611200578489015182556001820191506020850194506020810190506111db565b8683101561121d5784890151611219601f891682611126565b8355505b6001600288020188555050505b505050505050565b7f4e6f6e20657369737465206e657373756e2063616e64696461746f20636f6e2060008201527f7175656c6c2749442e0000000000000000000000000000000000000000000000602082015250565b600061128e602983610cef565b915061129982611232565b604082019050919050565b600060208201905081810360008301526112bd81611281565b905091905056fea26469706673582212200617fe893bf3dd2304f8988e169bf254f45a70fc76df23f2836d2ef1afdb018c64736f6c63430008110033",
  "immutableReferences": {},
  "source": "// SPDX-License-Identifier: MIT\npragma solidity >=0.8.0;\n\ncontract SecureVoting {\n    // Questo evento serve per loggare quando viene aggiunto un nuovo candidato\n    // Serve per il frontend per avere il riferimento alla votazione.\n    event AddedCandidate(uint256 candidateID);\n\n    // Indirizzo della persona che vota.\n    address owner;\n\n    // Costruttore.\n    constructor() {\n        owner = msg.sender;\n    }\n\n    // Modifier che si assicura che effettivamente ad eseguire il resto del codice\n    // sia la persona che sta votando.\n    modifier onlyOwner() {\n        require(msg.sender == owner);\n\n        // Questo carattere si usa in Solidity, solo in una funzione modifier, per far si\n        // che si possa eseguire il resto del codice.\n        _;\n    }\n\n    // Struct che descrive il Votante.\n    struct Voter {\n        uint256 candidateIDVote;\n        bool hasVoted;\n    }\n\n    // Struct che descrive un Candidato.\n    struct Candidate {\n        string name;\n        string party;\n        uint256 votes;\n        // Ci assicuriamo che esista davvero.\n        bool doesExist;\n    }\n\n    struct CandidateDao {\n        string name;\n        string party;\n        uint256 votes;\n        uint256 uid;\n    }\n\n    // Variabili di stato che vengono salvate sulla Blockchain per il numero di voti totali e il numero di candidati totale.\n    uint256 numCandidates;\n    uint256 numVoters;\n\n    // Hash-table che ci permettono di tenere conto di candidati e voti.\n    mapping(uint256 => Candidate) candidates;\n    mapping(address => Voter) voters;\n\n    function addCandidate(string calldata name, string calldata party)\n        public\n        onlyOwner\n    {\n        // Aggiorna il numero di Candidati totale.\n        uint256 candidateID = numCandidates++;\n        // Crea un nuovo candidato e lo aggiunge al mapping.\n        candidates[candidateID] = Candidate(name, party, 0, true);\n        // Logghiamo che  stato aggiunto un candidato.\n        emit AddedCandidate(candidateID);\n    }\n\n    function vote(address uid, uint256 candidateID) public {\n        // Controlla se esiste il candidato per cui votiamo.\n        if (candidates[candidateID].doesExist == true) {\n            numVoters++; // Numero di voti totale viene aggiornato\n            ++candidates[candidateID].votes;\n            voters[uid] = Voter(candidateID, true);\n        }\n    }\n\n    // Conta il numero di voti per un Candidato tramite un loop di tutte le votazioni effettuate.\n    function totalVotes(uint256 candidateID) public view returns (uint256) {\n        return candidates[candidateID].votes;\n    }\n\n    // Ritorna il numero di candidati totale.\n    function getNumOfCandidates() public view returns (uint256) {\n        return numCandidates;\n    }\n\n    // Ritorna il numero di voti totale.\n    function getNumOfVoters() public view returns (uint256) {\n        return numVoters;\n    }\n\n    // Ritorna tutti i candidati\n    function getCandidates() public view returns (CandidateDao[] memory) {\n        CandidateDao[] memory toBeRet = new CandidateDao[](numCandidates);\n        for (uint256 i = 0; i < numCandidates; i++) {\n            toBeRet[i] = CandidateDao(\n                candidates[i].name,\n                candidates[i].party,\n                candidates[i].votes,\n                i\n            );\n        }\n        return toBeRet;\n    }\n\n    // Ritorna tutte le informazioni su un Candidato.\n    // da modificare\n    function getCandidate(uint256 candidateID)\n        public\n        view\n        returns (\n            uint256,\n            string memory,\n            string memory\n        )\n    {\n        if (candidates[candidateID].doesExist == true) {\n            return (\n                candidateID,\n                candidates[candidateID].name,\n                candidates[candidateID].party\n            );\n        } else {\n            revert(\"Non esiste nessun candidato con quell'ID.\");\n        }\n    }\n\n    function hasAlreadyVoted(address voterID) public view returns (bool) {\n        return voters[voterID].hasVoted;\n    }\n\n    function isOwner() public view returns (bool) {\n        return msg.sender == owner;\n    }\n\n    // function memcmp(bytes memory a, bytes memory b)\n    //     internal\n    //     pure\n    //     returns (bool)\n    // {\n    //     return (a.length == b.length) && (keccak256(a) == keccak256(b));\n    // }\n\n    // function strcmp(string memory a, string memory b)\n    //     internal\n    //     pure\n    //     returns (bool)\n    // {\n    //     return memcmp(bytes(a), bytes(b));\n    // }\n}\n",
  "sourcePath": "/Users/antoniocacciapuoti/SecureVoting/contracts/SecureVoting.sol",
  "compiler": {
    "name": "solc",
    "version": "0.8.17+commit.8df45f5f.Emscripten.clang"
  },
  "schemaVersion": "3.4.11",
  "updatedAt": "2023-01-04T23:30:24.483Z",
  "networkType": "ethereum",
  "devdoc": {
    "kind": "dev",
    "methods": {},
    "version": 1
  },
  "userdoc": {
    "kind": "user",
    "methods": {},
    "version": 1
  }
}